{
  "contractName": "BouncerProxy",
  "abi": [
    {
      "constant": true,
      "inputs": [
        {
          "name": "",
          "type": "address"
        }
      ],
      "name": "nonce",
      "outputs": [
        {
          "name": "",
          "type": "uint256"
        }
      ],
      "payable": false,
      "stateMutability": "view",
      "type": "function"
    },
    {
      "constant": true,
      "inputs": [
        {
          "name": "",
          "type": "address"
        }
      ],
      "name": "whitelist",
      "outputs": [
        {
          "name": "",
          "type": "bool"
        }
      ],
      "payable": false,
      "stateMutability": "view",
      "type": "function"
    },
    {
      "inputs": [],
      "payable": false,
      "stateMutability": "nonpayable",
      "type": "constructor"
    },
    {
      "payable": true,
      "stateMutability": "payable",
      "type": "fallback"
    },
    {
      "anonymous": false,
      "inputs": [
        {
          "indexed": false,
          "name": "_account",
          "type": "address"
        },
        {
          "indexed": false,
          "name": "_value",
          "type": "bool"
        }
      ],
      "name": "UpdateWhitelist",
      "type": "event"
    },
    {
      "anonymous": false,
      "inputs": [
        {
          "indexed": true,
          "name": "sender",
          "type": "address"
        },
        {
          "indexed": false,
          "name": "value",
          "type": "uint256"
        }
      ],
      "name": "Received",
      "type": "event"
    },
    {
      "anonymous": false,
      "inputs": [
        {
          "indexed": false,
          "name": "sig",
          "type": "bytes"
        },
        {
          "indexed": false,
          "name": "signer",
          "type": "address"
        },
        {
          "indexed": false,
          "name": "destination",
          "type": "address"
        },
        {
          "indexed": false,
          "name": "value",
          "type": "uint256"
        },
        {
          "indexed": false,
          "name": "data",
          "type": "bytes"
        },
        {
          "indexed": false,
          "name": "_hash",
          "type": "bytes32"
        }
      ],
      "name": "Forwarded",
      "type": "event"
    },
    {
      "constant": false,
      "inputs": [
        {
          "name": "_account",
          "type": "address"
        },
        {
          "name": "_value",
          "type": "bool"
        }
      ],
      "name": "updateWhitelist",
      "outputs": [
        {
          "name": "",
          "type": "bool"
        }
      ],
      "payable": false,
      "stateMutability": "nonpayable",
      "type": "function"
    },
    {
      "constant": true,
      "inputs": [
        {
          "name": "signer",
          "type": "address"
        },
        {
          "name": "destination",
          "type": "address"
        },
        {
          "name": "value",
          "type": "uint256"
        },
        {
          "name": "data",
          "type": "bytes"
        }
      ],
      "name": "getHash",
      "outputs": [
        {
          "name": "",
          "type": "bytes32"
        }
      ],
      "payable": false,
      "stateMutability": "view",
      "type": "function"
    },
    {
      "constant": false,
      "inputs": [
        {
          "name": "sig",
          "type": "bytes"
        },
        {
          "name": "signer",
          "type": "address"
        },
        {
          "name": "destination",
          "type": "address"
        },
        {
          "name": "value",
          "type": "uint256"
        },
        {
          "name": "data",
          "type": "bytes"
        }
      ],
      "name": "forward",
      "outputs": [],
      "payable": false,
      "stateMutability": "nonpayable",
      "type": "function"
    },
    {
      "constant": true,
      "inputs": [
        {
          "name": "msgHash",
          "type": "bytes32"
        },
        {
          "name": "v",
          "type": "uint8"
        },
        {
          "name": "r",
          "type": "bytes32"
        },
        {
          "name": "s",
          "type": "bytes32"
        }
      ],
      "name": "ecrecoverCustom",
      "outputs": [
        {
          "name": "",
          "type": "address"
        }
      ],
      "payable": false,
      "stateMutability": "pure",
      "type": "function"
    }
  ],
  "bytecode": "0x608060405234801561001057600080fd5b5060018060003373ffffffffffffffffffffffffffffffffffffffff1673ffffffffffffffffffffffffffffffffffffffff16815260200190815260200160002060006101000a81548160ff021916908315150217905550610d61806100776000396000f3fe6080604052600436106100555760003560e01c80630d392cd9146100a557806370ae92d21461011a57806376e4b67a1461017f5780637f9ec70b146103285780639b19251a1461044e578063f3b88e9b146104b7575b3373ffffffffffffffffffffffffffffffffffffffff167f88a5966d370b9919b20f3e2c13ff65706f196a4e32cc2c12bf57088f88525874346040518082815260200191505060405180910390a2005b3480156100b157600080fd5b50610100600480360360408110156100c857600080fd5b81019080803573ffffffffffffffffffffffffffffffffffffffff169060200190929190803515159060200190929190505050610553565b604051808215151515815260200191505060405180910390f35b34801561012657600080fd5b506101696004803603602081101561013d57600080fd5b81019080803573ffffffffffffffffffffffffffffffffffffffff1690602001909291905050506106c7565b6040518082815260200191505060405180910390f35b34801561018b57600080fd5b50610326600480360360a08110156101a257600080fd5b81019080803590602001906401000000008111156101bf57600080fd5b8201836020820111156101d157600080fd5b803590602001918460018302840111640100000000831117156101f357600080fd5b91908080601f016020809104026020016040519081016040528093929190818152602001838380828437600081840152601f19601f820116905080830192505050505050509192919290803573ffffffffffffffffffffffffffffffffffffffff169060200190929190803573ffffffffffffffffffffffffffffffffffffffff16906020019092919080359060200190929190803590602001906401000000008111156102a057600080fd5b8201836020820111156102b257600080fd5b803590602001918460018302840111640100000000831117156102d457600080fd5b91908080601f016020809104026020016040519081016040528093929190818152602001838380828437600081840152601f19601f8201169050808301925050505050505091929192905050506106df565b005b34801561033457600080fd5b506104386004803603608081101561034b57600080fd5b81019080803573ffffffffffffffffffffffffffffffffffffffff169060200190929190803573ffffffffffffffffffffffffffffffffffffffff16906020019092919080359060200190929190803590602001906401000000008111156103b257600080fd5b8201836020820111156103c457600080fd5b803590602001918460018302840111640100000000831117156103e657600080fd5b91908080601f016020809104026020016040519081016040528093929190818152602001838380828437600081840152601f19601f820116905080830192505050505050509192919290505050610939565b6040518082815260200191505060405180910390f35b34801561045a57600080fd5b5061049d6004803603602081101561047157600080fd5b81019080803573ffffffffffffffffffffffffffffffffffffffff169060200190929190505050610aaa565b604051808215151515815260200191505060405180910390f35b3480156104c357600080fd5b50610511600480360360808110156104da57600080fd5b8101908080359060200190929190803560ff1690602001909291908035906020019092919080359060200190929190505050610aca565b604051808273ffffffffffffffffffffffffffffffffffffffff1673ffffffffffffffffffffffffffffffffffffffff16815260200191505060405180910390f35b6000600160003373ffffffffffffffffffffffffffffffffffffffff1673ffffffffffffffffffffffffffffffffffffffff16815260200190815260200160002060009054906101000a900460ff166105f7576040517f08c379a0000000000000000000000000000000000000000000000000000000008152600401808060200182810382526035815260200180610d016035913960400191505060405180910390fd5b81600160008573ffffffffffffffffffffffffffffffffffffffff1673ffffffffffffffffffffffffffffffffffffffff16815260200190815260200160002060006101000a81548160ff0219169083151502179055507f08b2c0469ecd1d7a21d7e1492f0fc75fc7e8e0fa4fdf4275949c90875f5ebdf58383604051808373ffffffffffffffffffffffffffffffffffffffff1673ffffffffffffffffffffffffffffffffffffffff168152602001821515151581526020019250505060405180910390a16001905092915050565b60006020528060005260406000206000915090505481565b60006106ed85858585610939565b90506000808673ffffffffffffffffffffffffffffffffffffffff1673ffffffffffffffffffffffffffffffffffffffff168152602001908152602001600020600081548092919060010191905055506107478187610b3d565b61079c576040517f08c379a000000000000000000000000000000000000000000000000000000000815260040180806020018281038252602f815260200180610cd2602f913960400191505060405180910390fd5b6107a7848484610cb9565b6107b057600080fd5b7fa44809876be7b0e3c1599dc7b3a9ef62dd9c43c0a951789d181c29e34a3575ce86868686868660405180806020018773ffffffffffffffffffffffffffffffffffffffff1673ffffffffffffffffffffffffffffffffffffffff1681526020018673ffffffffffffffffffffffffffffffffffffffff1673ffffffffffffffffffffffffffffffffffffffff16815260200185815260200180602001848152602001838103835289818151815260200191508051906020019080838360005b8381101561088b578082015181840152602081019050610870565b50505050905090810190601f1680156108b85780820380516001836020036101000a031916815260200191505b50838103825285818151815260200191508051906020019080838360005b838110156108f15780820151818401526020810190506108d6565b50505050905090810190601f16801561091e5780820380516001836020036101000a031916815260200191505b509850505050505050505060405180910390a1505050505050565b600030858585856000808b73ffffffffffffffffffffffffffffffffffffffff1673ffffffffffffffffffffffffffffffffffffffff16815260200190815260200160002054604051602001808773ffffffffffffffffffffffffffffffffffffffff1673ffffffffffffffffffffffffffffffffffffffff1660601b81526014018673ffffffffffffffffffffffffffffffffffffffff1673ffffffffffffffffffffffffffffffffffffffff1660601b81526014018573ffffffffffffffffffffffffffffffffffffffff1673ffffffffffffffffffffffffffffffffffffffff1660601b815260140184815260200183805190602001908083835b60208310610a5a5780518252602082019150602081019050602083039250610a37565b6001836020036101000a0380198251168184511680821785525050505050509050018281526020019650505050505050604051602081830303815290604052805190602001209050949350505050565b60016020528060005260406000206000915054906101000a900460ff1681565b600060018585858560405160008152602001604052604051808581526020018460ff1660ff1681526020018381526020018281526020019450505050506020604051602081039080840390855afa158015610b29573d6000803e3d6000fd5b505050602060405103519050949350505050565b6000806000806041855114610b585760009350505050610cb3565b6020850151925060408501519150606085015160001a9050601b8160ff161015610b8357601b810190505b601b8160ff1614158015610b9b5750601c8160ff1614155b15610bac5760009350505050610cb3565b6001600060018860405160200180807f19457468657265756d205369676e6564204d6573736167653a0a333200000000815250601c018281526020019150506040516020818303038152906040528051906020012084878760405160008152602001604052604051808581526020018460ff1660ff1681526020018381526020018281526020019450505050506020604051602081039080840390855afa158015610c5b573d6000803e3d6000fd5b5050506020604051035173ffffffffffffffffffffffffffffffffffffffff1673ffffffffffffffffffffffffffffffffffffffff16815260200190815260200160002060009054906101000a900460ff1693505050505b92915050565b600080600083516020850186885af19050939250505056fe426f756e63657250726f78793a3a666f7277617264205369676e6572206973206e6f742077686974656c6973746564426f756e63657250726f78793a3a75706461746557686974656c697374204163636f756e74204e6f742057686974656c6973746564a165627a7a7230582091984decdba6c53fbf67d85360016575a97073b75f16051fccf9495359cf22700029",
  "source": "pragma solidity >=0.4.21 <0.6.0;\n\ncontract BouncerProxy {\n  //whitelist the deployer so they can whitelist others\n  constructor() public {\n     whitelist[msg.sender] = true;\n  }\n  //to avoid replay\n  mapping(address => uint) public nonce;\n  // allow for third party metatx account to make transactions through this\n  // contract like an identity but make sure the owner has whitelisted the tx\n  mapping(address => bool) public whitelist;\n\n\n  event UpdateWhitelist(address _account, bool _value);\n  event Received (address indexed sender, uint value);\n  //event LogMessage (address what);\n\n  function () external payable {\n    emit Received(msg.sender, msg.value);\n  }\n\n  function updateWhitelist(address _account, bool _value) public returns(bool) {\n    require(whitelist[msg.sender],\"BouncerProxy::updateWhitelist Account Not Whitelisted\");\n    whitelist[_account] = _value;\n    emit UpdateWhitelist(_account,_value);\n    return true;\n  }\n\n  function getHash(address signer, address destination, uint value, bytes memory data)\n  public view returns(bytes32){\n    return keccak256(abi.encodePacked(address(this), signer, destination, value, data, nonce[signer]));\n  }\n\n   //        forward(sig,              accounts[0],    addressKingToken,    0,           data);\n  function forward(bytes memory sig, address signer, address destination, uint value, bytes memory data) public {\n      // msg.sender log to see\n     // emit LogMessage(msg.sender);\n      \n      //the hash contains all of the information about the meta transaction to be called\n      bytes32 _hash = getHash(signer, destination, value, data);\n      //increment the hash so this tx can't run again\n      nonce[signer]++;\n      //this makes sure signer signed correctly AND signer is a valid bouncer\n      require(signerIsWhitelisted(_hash,sig),\"BouncerProxy::forward Signer is not whitelisted\");\n      \n      //execute the transaction with all the given parameters\n      require(executeCall(destination, value, data));\n      emit Forwarded(sig, signer, destination, value, data, _hash);\n  }\n  // when some frontends see that a tx is made from a bouncerproxy, they may want to parse through these events to find out who the signer was etc\n  event Forwarded (bytes sig, address signer, address destination, uint value, bytes data, bytes32 _hash);\n\n\n  function executeCall(address to, uint256 value, bytes memory data) internal returns (bool success) {\n    assembly {\n    // call(g, a, v, in, insize, out, outsize)    \n    // call contract at address a with input mem[in..(in+insize)) providing g gas and v wei and\n    // output area mem[out..(out+outsize)) returning 0 on error  (eg. out of gas) and 1 on success\n    // a 컨트랙트를 v wei 값으로 호출, 호출자는 in+insize 의 주소임, 결과값을 out+outsize 로 전달\n       success := call(gas, to, value, add(data, 0x20), mload(data), 0, 0)\n       // 0x20(EOA) 이  to(Contract Address) 를 호출함. 필요한 가스 비용은 0x20 이 충당\n    }\n  }\n\n  //borrowed from OpenZeppelin's ESDA stuff:\n  function signerIsWhitelisted(bytes32 _hash, bytes memory _signature) internal view returns (bool){\n    bytes32 r;\n    bytes32 s;\n    uint8 v;\n    // Check the signature length\n    if (_signature.length != 65) {\n      return false;\n    }\n    // Divide the signature in r, s and v variables\n    // ecrecover takes the signature parameters, and the only way to get them\n    // currently is to use assembly.\n    // solium-disable-next-line security/no-inline-assembly\n    assembly {\n      r := mload(add(_signature, 32))\n      s := mload(add(_signature, 64))\n      v := byte(0, mload(add(_signature, 96)))\n    }\n    // Version of signature should be 27 or 28, but 0 and 1 are also possible versions\n    if (v < 27) {\n      v += 27;\n    }\n    // If the version is correct return the signer address\n    if (v != 27 && v != 28) {\n      return false;\n    } else {\n      // solium-disable-next-line arg-overflow\n      return whitelist[ecrecover(keccak256(             // ecrecover 는 opcode 임, 어셈블리 코드\n        abi.encodePacked(\"\\x19Ethereum Signed Message:\\n32\", _hash)\n      ), v, r, s)];\n    }\n  }\n\n\n  // only for test\n  function ecrecoverCustom(bytes32 msgHash, uint8 v, bytes32 r, bytes32 s) public pure returns (address) {\n    return ecrecover(msgHash, v, r, s);\n  }\n}\n\n// 현재 자체 토큰 사용중으로 필요없음\ncontract StandardToken {\n  function transfer(address _to,uint256 _value) public returns (bool) { }\n}\n",
  "sourcePath": "/proxy/contracts/BouncerProxy.sol",
  "compiler": {
    "name": "solc",
    "version": "0.5.8+commit.23d335f2.Emscripten.clang"
  },
  "schemaVersion": "3.0.16",
  "updatedAt": "2019-11-03T12:34:46.142Z",
  "devdoc": {
    "methods": {}
  },
  "userdoc": {
    "methods": {}
  }
}