{
  "contractName": "BouncerProxy",
  "abi": [
    {
      "constant": true,
      "inputs": [
        {
          "name": "",
          "type": "address"
        }
      ],
      "name": "nonce",
      "outputs": [
        {
          "name": "",
          "type": "uint256"
        }
      ],
      "payable": false,
      "stateMutability": "view",
      "type": "function"
    },
    {
      "constant": true,
      "inputs": [
        {
          "name": "",
          "type": "address"
        }
      ],
      "name": "whitelist",
      "outputs": [
        {
          "name": "",
          "type": "bool"
        }
      ],
      "payable": false,
      "stateMutability": "view",
      "type": "function"
    },
    {
      "inputs": [],
      "payable": false,
      "stateMutability": "nonpayable",
      "type": "constructor"
    },
    {
      "payable": true,
      "stateMutability": "payable",
      "type": "fallback"
    },
    {
      "anonymous": false,
      "inputs": [
        {
          "indexed": false,
          "name": "_account",
          "type": "address"
        },
        {
          "indexed": false,
          "name": "_value",
          "type": "bool"
        }
      ],
      "name": "UpdateWhitelist",
      "type": "event"
    },
    {
      "anonymous": false,
      "inputs": [
        {
          "indexed": true,
          "name": "sender",
          "type": "address"
        },
        {
          "indexed": false,
          "name": "value",
          "type": "uint256"
        }
      ],
      "name": "Received",
      "type": "event"
    },
    {
      "anonymous": false,
      "inputs": [
        {
          "indexed": false,
          "name": "sig",
          "type": "bytes"
        },
        {
          "indexed": false,
          "name": "signer",
          "type": "address"
        },
        {
          "indexed": false,
          "name": "destination",
          "type": "address"
        },
        {
          "indexed": false,
          "name": "value",
          "type": "uint256"
        },
        {
          "indexed": false,
          "name": "data",
          "type": "bytes"
        },
        {
          "indexed": false,
          "name": "rewardToken",
          "type": "address"
        },
        {
          "indexed": false,
          "name": "rewardAmount",
          "type": "uint256"
        },
        {
          "indexed": false,
          "name": "_hash",
          "type": "bytes32"
        }
      ],
      "name": "Forwarded",
      "type": "event"
    },
    {
      "constant": false,
      "inputs": [
        {
          "name": "_account",
          "type": "address"
        },
        {
          "name": "_value",
          "type": "bool"
        }
      ],
      "name": "updateWhitelist",
      "outputs": [
        {
          "name": "",
          "type": "bool"
        }
      ],
      "payable": false,
      "stateMutability": "nonpayable",
      "type": "function"
    },
    {
      "constant": true,
      "inputs": [
        {
          "name": "signer",
          "type": "address"
        },
        {
          "name": "destination",
          "type": "address"
        },
        {
          "name": "value",
          "type": "uint256"
        },
        {
          "name": "data",
          "type": "bytes"
        },
        {
          "name": "rewardToken",
          "type": "address"
        },
        {
          "name": "rewardAmount",
          "type": "uint256"
        }
      ],
      "name": "getHash",
      "outputs": [
        {
          "name": "",
          "type": "bytes32"
        }
      ],
      "payable": false,
      "stateMutability": "view",
      "type": "function"
    },
    {
      "constant": false,
      "inputs": [
        {
          "name": "sig",
          "type": "bytes"
        },
        {
          "name": "signer",
          "type": "address"
        },
        {
          "name": "destination",
          "type": "address"
        },
        {
          "name": "value",
          "type": "uint256"
        },
        {
          "name": "data",
          "type": "bytes"
        },
        {
          "name": "rewardToken",
          "type": "address"
        },
        {
          "name": "rewardAmount",
          "type": "uint256"
        }
      ],
      "name": "forward",
      "outputs": [],
      "payable": false,
      "stateMutability": "nonpayable",
      "type": "function"
    }
  ],
  "bytecode": "0x608060405234801561001057600080fd5b5060018060003373ffffffffffffffffffffffffffffffffffffffff1673ffffffffffffffffffffffffffffffffffffffff16815260200190815260200160002060006101000a81548160ff021916908315150217905550610ed3806100776000396000f3fe60806040526004361061004a5760003560e01c80630d392cd91461009a5780630ee02d9d1461010f578063622f97301461025f57806370ae92d2146104325780639b19251a14610497575b3373ffffffffffffffffffffffffffffffffffffffff167f88a5966d370b9919b20f3e2c13ff65706f196a4e32cc2c12bf57088f88525874346040518082815260200191505060405180910390a2005b3480156100a657600080fd5b506100f5600480360360408110156100bd57600080fd5b81019080803573ffffffffffffffffffffffffffffffffffffffff169060200190929190803515159060200190929190505050610500565b604051808215151515815260200191505060405180910390f35b34801561011b57600080fd5b50610249600480360360c081101561013257600080fd5b81019080803573ffffffffffffffffffffffffffffffffffffffff169060200190929190803573ffffffffffffffffffffffffffffffffffffffff169060200190929190803590602001909291908035906020019064010000000081111561019957600080fd5b8201836020820111156101ab57600080fd5b803590602001918460018302840111640100000000831117156101cd57600080fd5b91908080601f016020809104026020016040519081016040528093929190818152602001838380828437600081840152601f19601f820116905080830192505050505050509192919290803573ffffffffffffffffffffffffffffffffffffffff16906020019092919080359060200190929190505050610674565b6040518082815260200191505060405180910390f35b34801561026b57600080fd5b50610430600480360360e081101561028257600080fd5b810190808035906020019064010000000081111561029f57600080fd5b8201836020820111156102b157600080fd5b803590602001918460018302840111640100000000831117156102d357600080fd5b91908080601f016020809104026020016040519081016040528093929190818152602001838380828437600081840152601f19601f820116905080830192505050505050509192919290803573ffffffffffffffffffffffffffffffffffffffff169060200190929190803573ffffffffffffffffffffffffffffffffffffffff169060200190929190803590602001909291908035906020019064010000000081111561038057600080fd5b82018360208201111561039257600080fd5b803590602001918460018302840111640100000000831117156103b457600080fd5b91908080601f016020809104026020016040519081016040528093929190818152602001838380828437600081840152601f19601f820116905080830192505050505050509192919290803573ffffffffffffffffffffffffffffffffffffffff16906020019092919080359060200190929190505050610826565b005b34801561043e57600080fd5b506104816004803603602081101561045557600080fd5b81019080803573ffffffffffffffffffffffffffffffffffffffff169060200190929190505050610c77565b6040518082815260200191505060405180910390f35b3480156104a357600080fd5b506104e6600480360360208110156104ba57600080fd5b81019080803573ffffffffffffffffffffffffffffffffffffffff169060200190929190505050610c8f565b604051808215151515815260200191505060405180910390f35b6000600160003373ffffffffffffffffffffffffffffffffffffffff1673ffffffffffffffffffffffffffffffffffffffff16815260200190815260200160002060009054906101000a900460ff166105a4576040517f08c379a0000000000000000000000000000000000000000000000000000000008152600401808060200182810382526035815260200180610e736035913960400191505060405180910390fd5b81600160008573ffffffffffffffffffffffffffffffffffffffff1673ffffffffffffffffffffffffffffffffffffffff16815260200190815260200160002060006101000a81548160ff0219169083151502179055507f08b2c0469ecd1d7a21d7e1492f0fc75fc7e8e0fa4fdf4275949c90875f5ebdf58383604051808373ffffffffffffffffffffffffffffffffffffffff1673ffffffffffffffffffffffffffffffffffffffff168152602001821515151581526020019250505060405180910390a16001905092915050565b6000308787878787876000808f73ffffffffffffffffffffffffffffffffffffffff1673ffffffffffffffffffffffffffffffffffffffff16815260200190815260200160002054604051602001808973ffffffffffffffffffffffffffffffffffffffff1673ffffffffffffffffffffffffffffffffffffffff1660601b81526014018873ffffffffffffffffffffffffffffffffffffffff1673ffffffffffffffffffffffffffffffffffffffff1660601b81526014018773ffffffffffffffffffffffffffffffffffffffff1673ffffffffffffffffffffffffffffffffffffffff1660601b815260140186815260200185805190602001908083835b602083106107975780518252602082019150602081019050602083039250610774565b6001836020036101000a0380198251168184511680821785525050505050509050018473ffffffffffffffffffffffffffffffffffffffff1673ffffffffffffffffffffffffffffffffffffffff1660601b8152601401838152602001828152602001985050505050505050506040516020818303038152906040528051906020012090509695505050505050565b6000610836878787878787610674565b90506000808873ffffffffffffffffffffffffffffffffffffffff1673ffffffffffffffffffffffffffffffffffffffff168152602001908152602001600020600081548092919060010191905055506108908189610caf565b6108e5576040517f08c379a000000000000000000000000000000000000000000000000000000000815260040180806020018281038252602f815260200180610e44602f913960400191505060405180910390fd5b6000821115610a9c57600073ffffffffffffffffffffffffffffffffffffffff168373ffffffffffffffffffffffffffffffffffffffff1614156109cf573373ffffffffffffffffffffffffffffffffffffffff166108fc839081150290604051600060405180830381858888f193505050506109ca576040517f08c379a00000000000000000000000000000000000000000000000000000000081526004018080602001828103825260108152602001807f626f636b2073656e64207265776172640000000000000000000000000000000081525060200191505060405180910390fd5b610a9b565b8273ffffffffffffffffffffffffffffffffffffffff1663a9059cbb33846040518363ffffffff1660e01b8152600401808373ffffffffffffffffffffffffffffffffffffffff1673ffffffffffffffffffffffffffffffffffffffff16815260200182815260200192505050602060405180830381600087803b158015610a5657600080fd5b505af1158015610a6a573d6000803e3d6000fd5b505050506040513d6020811015610a8057600080fd5b8101908080519060200190929190505050610a9a57600080fd5b5b5b610aa7868686610e2b565b610ab057600080fd5b7f6d4a868d9686051f889f61dc96415c0809f248cd6ce33eb543ff445b972084fe888888888888888860405180806020018973ffffffffffffffffffffffffffffffffffffffff1673ffffffffffffffffffffffffffffffffffffffff1681526020018873ffffffffffffffffffffffffffffffffffffffff1673ffffffffffffffffffffffffffffffffffffffff168152602001878152602001806020018673ffffffffffffffffffffffffffffffffffffffff1673ffffffffffffffffffffffffffffffffffffffff16815260200185815260200184815260200183810383528b818151815260200191508051906020019080838360005b83811015610bc5578082015181840152602081019050610baa565b50505050905090810190601f168015610bf25780820380516001836020036101000a031916815260200191505b50838103825287818151815260200191508051906020019080838360005b83811015610c2b578082015181840152602081019050610c10565b50505050905090810190601f168015610c585780820380516001836020036101000a031916815260200191505b509a505050505050505050505060405180910390a15050505050505050565b60006020528060005260406000206000915090505481565b60016020528060005260406000206000915054906101000a900460ff1681565b6000806000806041855114610cca5760009350505050610e25565b6020850151925060408501519150606085015160001a9050601b8160ff161015610cf557601b810190505b601b8160ff1614158015610d0d5750601c8160ff1614155b15610d1e5760009350505050610e25565b6001600060018860405160200180807f19457468657265756d205369676e6564204d6573736167653a0a333200000000815250601c018281526020019150506040516020818303038152906040528051906020012084878760405160008152602001604052604051808581526020018460ff1660ff1681526020018381526020018281526020019450505050506020604051602081039080840390855afa158015610dcd573d6000803e3d6000fd5b5050506020604051035173ffffffffffffffffffffffffffffffffffffffff1673ffffffffffffffffffffffffffffffffffffffff16815260200190815260200160002060009054906101000a900460ff1693505050505b92915050565b600080600083516020850186885af19050939250505056fe426f756e63657250726f78793a3a666f7277617264205369676e6572206973206e6f742077686974656c6973746564426f756e63657250726f78793a3a75706461746557686974656c697374204163636f756e74204e6f742057686974656c6973746564a165627a7a723058204e34b501e1b76f256b475f0592fbdae9e0aa1fc9ed14786c670ad18b4a9be2240029",
  "source": "pragma solidity >=0.4.21 <0.6.0;\n\ncontract BouncerProxy {\n  //whitelist the deployer so they can whitelist others\n  constructor() public {\n     whitelist[msg.sender] = true;\n  }\n  //to avoid replay\n  mapping(address => uint) public nonce;\n  // allow for third party metatx account to make transactions through this\n  // contract like an identity but make sure the owner has whitelisted the tx\n  mapping(address => bool) public whitelist;\n\n\n  event UpdateWhitelist(address _account, bool _value);\n  event Received (address indexed sender, uint value);\n  function () external payable {\n    emit Received(msg.sender, msg.value);\n  }\n\n  function updateWhitelist(address _account, bool _value) public returns(bool) {\n    require(whitelist[msg.sender],\"BouncerProxy::updateWhitelist Account Not Whitelisted\");\n    whitelist[_account] = _value;\n    emit UpdateWhitelist(_account,_value);\n    return true;\n  }\n\n  function getHash(address signer, address destination, uint value, bytes memory data, address rewardToken, uint rewardAmount)\n  public view returns(bytes32){\n    return keccak256(abi.encodePacked(address(this), signer, destination, value, data, rewardToken, rewardAmount, nonce[signer]));\n  }\n\n  function forward(bytes memory sig, address signer, address destination, uint value, bytes memory data, address rewardToken, uint rewardAmount) public {\n      //the hash contains all of the information about the meta transaction to be called\n      bytes32 _hash = getHash(signer, destination, value, data, rewardToken, rewardAmount);\n      //increment the hash so this tx can't run again\n      nonce[signer]++;\n      //this makes sure signer signed correctly AND signer is a valid bouncer\n      require(signerIsWhitelisted(_hash,sig),\"BouncerProxy::forward Signer is not whitelisted\");\n      //make sure the signer pays in whatever token (or ether) the sender and signer agreed to\n      // or skip this if the sender is incentivized in other ways and there is no need for a token\n      if(rewardAmount>0){\n        //Address 0 mean reward with ETH\n        if(rewardToken==address(0)){\n          //REWARD ETHER\n          //require(msg.sender.call.value(rewardAmount)(''),'Not enough for gas');\n          //require(msg.sender.call.value(rewardAmount)(\"\"),\"ppp\");\n          require(msg.sender.send(rewardAmount),\"bock send reward\");\n\n        }else{\n          //REWARD TOKEN\n          require((StandardToken(rewardToken)).transfer(msg.sender,rewardAmount));\n        }\n      }\n      //execute the transaction with all the given parameters\n      require(executeCall(destination, value, data));\n      emit Forwarded(sig, signer, destination, value, data, rewardToken, rewardAmount, _hash);\n  }\n  // when some frontends see that a tx is made from a bouncerproxy, they may want to parse through these events to find out who the signer was etc\n  event Forwarded (bytes sig, address signer, address destination, uint value, bytes data,address rewardToken, uint rewardAmount,bytes32 _hash);\n\n\n  function executeCall(address to, uint256 value, bytes memory data) internal returns (bool success) {\n    assembly {\n    // call(g, a, v, in, insize, out, outsize)\t\n    // call contract at address a with input mem[in..(in+insize)) providing g gas and v wei and\n    // output area mem[out..(out+outsize)) returning 0 on error  (eg. out of gas) and 1 on success\n       success := call(gas, to, value, add(data, 0x20), mload(data), 0, 0)\n    }\n  }\n\n  //borrowed from OpenZeppelin's ESDA stuff:\n  function signerIsWhitelisted(bytes32 _hash, bytes memory _signature) internal view returns (bool){\n    bytes32 r;\n    bytes32 s;\n    uint8 v;\n    // Check the signature length\n    if (_signature.length != 65) {\n      return false;\n    }\n    // Divide the signature in r, s and v variables\n    // ecrecover takes the signature parameters, and the only way to get them\n    // currently is to use assembly.\n    // solium-disable-next-line security/no-inline-assembly\n    assembly {\n      r := mload(add(_signature, 32))\n      s := mload(add(_signature, 64))\n      v := byte(0, mload(add(_signature, 96)))\n    }\n    // Version of signature should be 27 or 28, but 0 and 1 are also possible versions\n    if (v < 27) {\n      v += 27;\n    }\n    // If the version is correct return the signer address\n    if (v != 27 && v != 28) {\n      return false;\n    } else {\n      // solium-disable-next-line arg-overflow\n      return whitelist[ecrecover(keccak256(\n        abi.encodePacked(\"\\x19Ethereum Signed Message:\\n32\", _hash)\n      ), v, r, s)];\n    }\n  }\n}\n\ncontract StandardToken {\n  function transfer(address _to,uint256 _value) public returns (bool) { }\n}",
  "sourcePath": "/proxy/contracts/BouncerProxy.sol",
  "compiler": {
    "name": "solc",
    "version": "0.5.8+commit.23d335f2.Emscripten.clang"
  },
  "schemaVersion": "3.0.16",
  "updatedAt": "2019-10-26T12:26:52.418Z",
  "devdoc": {
    "methods": {}
  },
  "userdoc": {
    "methods": {}
  }
}