{
  "contractName": "Example",
  "abi": [
    {
      "constant": true,
      "inputs": [],
      "name": "count",
      "outputs": [
        {
          "name": "",
          "type": "uint256"
        }
      ],
      "payable": false,
      "stateMutability": "view",
      "type": "function"
    },
    {
      "constant": true,
      "inputs": [],
      "name": "name",
      "outputs": [
        {
          "name": "",
          "type": "string"
        }
      ],
      "payable": false,
      "stateMutability": "view",
      "type": "function"
    },
    {
      "inputs": [],
      "payable": false,
      "stateMutability": "nonpayable",
      "type": "constructor"
    },
    {
      "payable": true,
      "stateMutability": "payable",
      "type": "fallback"
    },
    {
      "anonymous": false,
      "inputs": [
        {
          "indexed": true,
          "name": "sender",
          "type": "address"
        },
        {
          "indexed": false,
          "name": "value",
          "type": "uint256"
        }
      ],
      "name": "Received",
      "type": "event"
    },
    {
      "constant": false,
      "inputs": [
        {
          "name": "amount",
          "type": "uint256"
        }
      ],
      "name": "addAmount",
      "outputs": [
        {
          "name": "",
          "type": "bool"
        }
      ],
      "payable": false,
      "stateMutability": "nonpayable",
      "type": "function"
    }
  ],
  "bytecode": "0x60806040526000805534801561001457600080fd5b50610213806100246000396000f3fe6080604052600436106100345760003560e01c806306661abd1461008457806306fdde03146100af5780630912f2321461013f575b3373ffffffffffffffffffffffffffffffffffffffff167f88a5966d370b9919b20f3e2c13ff65706f196a4e32cc2c12bf57088f88525874346040518082815260200191505060405180910390a2005b34801561009057600080fd5b50610099610192565b6040518082815260200191505060405180910390f35b3480156100bb57600080fd5b506100c4610198565b6040518080602001828103825283818151815260200191508051906020019080838360005b838110156101045780820151818401526020810190506100e9565b50505050905090810190601f1680156101315780820380516001836020036101000a031916815260200191505b509250505060405180910390f35b34801561014b57600080fd5b506101786004803603602081101561016257600080fd5b81019080803590602001909291905050506101d1565b604051808215151515815260200191505060405180910390f35b60005481565b6040518060400160405280600a81526020017f4578616d706c6543686b0000000000000000000000000000000000000000000081525081565b600081600054016000819055506001905091905056fea165627a7a723058201a6cd366ad0d5667c4669f9c8ae34b0fddf9c6e503593223c02c0a166cc7e7eb0029",
  "source": "pragma solidity >=0.4.21 <0.6.0;\n\n/*\n\n  This is just a very simple example contract used to demonstrate the BouncerProxy making calls to it\n\n*/\n\n\ncontract Example {\n\n  constructor() public { }\n\n  //it keeps a count to demonstrate stage changes\n  uint public count = 0;\n  string public constant name = \"ExampleChk\";\n\n  //it can receive funds\n  function () external payable { emit Received(msg.sender, msg.value); }\n\n  event Received (address indexed sender, uint value);\n\n  //and it can add to a count\n  function addAmount(uint256 amount) public returns (bool) {\n    count = count + amount;\n    return true;\n  }\n}",
  "sourcePath": "/proxy/contracts/Example.sol",
  "compiler": {
    "name": "solc",
    "version": "0.5.8+commit.23d335f2.Emscripten.clang"
  },
  "schemaVersion": "3.0.16",
  "updatedAt": "2019-10-26T06:03:11.874Z",
  "devdoc": {
    "methods": {}
  },
  "userdoc": {
    "methods": {}
  }
}