{
  "contractName": "Example",
  "abi": [
    {
      "constant": true,
      "inputs": [],
      "name": "count",
      "outputs": [
        {
          "name": "",
          "type": "uint256"
        }
      ],
      "payable": false,
      "stateMutability": "view",
      "type": "function"
    },
    {
      "constant": true,
      "inputs": [],
      "name": "name",
      "outputs": [
        {
          "name": "",
          "type": "string"
        }
      ],
      "payable": false,
      "stateMutability": "view",
      "type": "function"
    },
    {
      "inputs": [],
      "payable": false,
      "stateMutability": "nonpayable",
      "type": "constructor"
    },
    {
      "payable": true,
      "stateMutability": "payable",
      "type": "fallback"
    },
    {
      "anonymous": false,
      "inputs": [
        {
          "indexed": true,
          "name": "sender",
          "type": "address"
        },
        {
          "indexed": false,
          "name": "value",
          "type": "uint256"
        }
      ],
      "name": "Received",
      "type": "event"
    },
    {
      "constant": false,
      "inputs": [
        {
          "name": "amount",
          "type": "uint256"
        }
      ],
      "name": "addAmount",
      "outputs": [
        {
          "name": "",
          "type": "bool"
        }
      ],
      "payable": false,
      "stateMutability": "nonpayable",
      "type": "function"
    },
    {
      "constant": true,
      "inputs": [
        {
          "name": "msgHash",
          "type": "bytes32"
        },
        {
          "name": "v",
          "type": "uint8"
        },
        {
          "name": "r",
          "type": "bytes32"
        },
        {
          "name": "s",
          "type": "bytes32"
        }
      ],
      "name": "ecrecoverCustom",
      "outputs": [
        {
          "name": "",
          "type": "address"
        }
      ],
      "payable": false,
      "stateMutability": "pure",
      "type": "function"
    }
  ],
  "bytecode": "0x60806040526000805534801561001457600080fd5b5061032d806100246000396000f3fe60806040526004361061003f5760003560e01c806306661abd1461008f57806306fdde03146100ba5780630912f2321461014a578063f3b88e9b1461019d575b3373ffffffffffffffffffffffffffffffffffffffff167f88a5966d370b9919b20f3e2c13ff65706f196a4e32cc2c12bf57088f88525874346040518082815260200191505060405180910390a2005b34801561009b57600080fd5b506100a4610239565b6040518082815260200191505060405180910390f35b3480156100c657600080fd5b506100cf61023f565b6040518080602001828103825283818151815260200191508051906020019080838360005b8381101561010f5780820151818401526020810190506100f4565b50505050905090810190601f16801561013c5780820380516001836020036101000a031916815260200191505b509250505060405180910390f35b34801561015657600080fd5b506101836004803603602081101561016d57600080fd5b8101908080359060200190929190505050610278565b604051808215151515815260200191505060405180910390f35b3480156101a957600080fd5b506101f7600480360360808110156101c057600080fd5b8101908080359060200190929190803560ff169060200190929190803590602001909291908035906020019092919050505061028e565b604051808273ffffffffffffffffffffffffffffffffffffffff1673ffffffffffffffffffffffffffffffffffffffff16815260200191505060405180910390f35b60005481565b6040518060400160405280600a81526020017f4578616d706c6543686b0000000000000000000000000000000000000000000081525081565b6000816000540160008190555060019050919050565b600060018585858560405160008152602001604052604051808581526020018460ff1660ff1681526020018381526020018281526020019450505050506020604051602081039080840390855afa1580156102ed573d6000803e3d6000fd5b50505060206040510351905094935050505056fea165627a7a72305820ce09b2875694592673edbaae40d4416a825b004b6b0b39f863772f93b6742fa90029",
  "source": "pragma solidity >=0.4.21 <0.6.0;\n\n/*\n\n  This is just a very simple example contract used to demonstrate the BouncerProxy making calls to it\n\n*/\n\n\ncontract Example {\n\n  constructor() public { }\n\n  //it keeps a count to demonstrate stage changes\n  uint public count = 0;\n  string public constant name = \"ExampleChk\";\n\n  //it can receive funds\n  function () external payable { emit Received(msg.sender, msg.value); }\n\n  event Received (address indexed sender, uint value);\n\n  //and it can add to a count\n  function addAmount(uint256 amount) public returns (bool) {\n    count = count + amount;\n    return true;\n  }\n\n  // only for test\n  function ecrecoverCustom(bytes32 msgHash, uint8 v, bytes32 r, bytes32 s) public pure returns (address) {\n    return ecrecover(msgHash, v, r, s);\n  }\n}",
  "sourcePath": "/proxy/contracts/Example.sol",
  "compiler": {
    "name": "solc",
    "version": "0.5.8+commit.23d335f2.Emscripten.clang"
  },
  "schemaVersion": "3.0.16",
  "updatedAt": "2019-10-27T05:02:15.392Z",
  "devdoc": {
    "methods": {}
  },
  "userdoc": {
    "methods": {}
  }
}