{
  "contractName": "StandardToken",
  "abi": [
    {
      "constant": false,
      "inputs": [
        {
          "name": "_to",
          "type": "address"
        },
        {
          "name": "_value",
          "type": "uint256"
        }
      ],
      "name": "transfer",
      "outputs": [
        {
          "name": "",
          "type": "bool"
        }
      ],
      "payable": false,
      "stateMutability": "nonpayable",
      "type": "function"
    }
  ],
  "bytecode": "0x608060405234801561001057600080fd5b5060c48061001f6000396000f3fe6080604052348015600f57600080fd5b506004361060285760003560e01c8063a9059cbb14602d575b600080fd5b607660048036036040811015604157600080fd5b81019080803573ffffffffffffffffffffffffffffffffffffffff169060200190929190803590602001909291905050506090565b604051808215151515815260200191505060405180910390f35b60009291505056fea165627a7a72305820ce7d4382651fbe021d26ce68a3c41305f0c9585c65395eae94fa6878c1b0a4a00029",
  "source": "pragma solidity >=0.4.21 <0.6.0;\n\ncontract BouncerProxy {\n  //whitelist the deployer so they can whitelist others\n  constructor() public {\n     whitelist[msg.sender] = true;\n  }\n  //to avoid replay\n  mapping(address => uint) public nonce;\n  // allow for third party metatx account to make transactions through this\n  // contract like an identity but make sure the owner has whitelisted the tx\n  mapping(address => bool) public whitelist;\n\n\n  event UpdateWhitelist(address _account, bool _value);\n  event Received (address indexed sender, uint value);\n  //event LogMessage (address what);\n\n  function () external payable {\n    emit Received(msg.sender, msg.value);\n  }\n\n  function updateWhitelist(address _account, bool _value) public returns(bool) {\n    require(whitelist[msg.sender],\"BouncerProxy::updateWhitelist Account Not Whitelisted\");\n    whitelist[_account] = _value;\n    emit UpdateWhitelist(_account,_value);\n    return true;\n  }\n\n  function getHash(address signer, address destination, uint value, bytes memory data)\n  public view returns(bytes32){\n    return keccak256(abi.encodePacked(address(this), signer, destination, value, data, nonce[signer]));\n  }\n\n   //        forward(sig,              accounts[0],    addressKingToken,    0,           data);\n  function forward(bytes memory sig, address signer, address destination, uint value, bytes memory data) public {\n      // msg.sender log to see\n     // emit LogMessage(msg.sender);\n      \n      //the hash contains all of the information about the meta transaction to be called\n      bytes32 _hash = getHash(signer, destination, value, data);\n      //increment the hash so this tx can't run again\n      nonce[signer]++;\n      //this makes sure signer signed correctly AND signer is a valid bouncer\n      require(signerIsWhitelisted(_hash,sig),\"BouncerProxy::forward Signer is not whitelisted\");\n      \n      //execute the transaction with all the given parameters\n      require(executeCall(destination, value, data));\n      emit Forwarded(sig, signer, destination, value, data, _hash);\n  }\n  // when some frontends see that a tx is made from a bouncerproxy, they may want to parse through these events to find out who the signer was etc\n  event Forwarded (bytes sig, address signer, address destination, uint value, bytes data, bytes32 _hash);\n\n\n  function executeCall(address to, uint256 value, bytes memory data) internal returns (bool success) {\n    assembly {\n    // call(g, a, v, in, insize, out, outsize)    \n    // call contract at address a with input mem[in..(in+insize)) providing g gas and v wei and\n    // output area mem[out..(out+outsize)) returning 0 on error  (eg. out of gas) and 1 on success\n    // a 컨트랙트를 v wei 값으로 호출, 호출자는 in+insize 의 주소임, 결과값을 out+outsize 로 전달\n       success := call(gas, to, value, add(data, 0x20), mload(data), 0, 0)\n       // 0x20(EOA) 이  to(Contract Address) 를 호출함. 필요한 가스 비용은 0x20 이 충당\n    }\n  }\n\n  //borrowed from OpenZeppelin's ESDA stuff:\n  function signerIsWhitelisted(bytes32 _hash, bytes memory _signature) internal view returns (bool){\n    bytes32 r;\n    bytes32 s;\n    uint8 v;\n    // Check the signature length\n    if (_signature.length != 65) {\n      return false;\n    }\n    // Divide the signature in r, s and v variables\n    // ecrecover takes the signature parameters, and the only way to get them\n    // currently is to use assembly.\n    // solium-disable-next-line security/no-inline-assembly\n    assembly {\n      r := mload(add(_signature, 32))\n      s := mload(add(_signature, 64))\n      v := byte(0, mload(add(_signature, 96)))\n    }\n    // Version of signature should be 27 or 28, but 0 and 1 are also possible versions\n    if (v < 27) {\n      v += 27;\n    }\n    // If the version is correct return the signer address\n    if (v != 27 && v != 28) {\n      return false;\n    } else {\n      // solium-disable-next-line arg-overflow\n      return whitelist[ecrecover(keccak256(             // ecrecover 는 opcode 임, 어셈블리 코드\n        abi.encodePacked(\"\\x19Ethereum Signed Message:\\n32\", _hash)\n      ), v, r, s)];\n    }\n  }\n\n\n  // only for test\n  function ecrecoverCustom(bytes32 msgHash, uint8 v, bytes32 r, bytes32 s) public pure returns (address) {\n    return ecrecover(msgHash, v, r, s);\n  }\n}\n\n// 현재 자체 토큰 사용중으로 필요없음\ncontract StandardToken {\n  function transfer(address _to,uint256 _value) public returns (bool) { }\n}\n",
  "sourcePath": "/proxy/contracts/BouncerProxy.sol",
  "compiler": {
    "name": "solc",
    "version": "0.5.8+commit.23d335f2.Emscripten.clang"
  },
  "schemaVersion": "3.0.16",
  "updatedAt": "2019-11-03T12:19:23.537Z",
  "devdoc": {
    "methods": {}
  },
  "userdoc": {
    "methods": {}
  }
}